{
  "_format": "hh-sol-artifact-1",
  "contractName": "VDaoGovToken",
  "sourceName": "contracts/VDaoGovToken.sol",
  "abi": [
    {
      "inputs": [],
      "stateMutability": "nonpayable",
      "type": "constructor"
    },
    {
      "anonymous": false,
      "inputs": [
        {
          "indexed": false,
          "internalType": "bool",
          "name": "Result",
          "type": "bool"
        },
        {
          "indexed": false,
          "internalType": "uint256",
          "name": "totalSupply",
          "type": "uint256"
        },
        {
          "indexed": false,
          "internalType": "uint256",
          "name": "numberAddressesUpdated",
          "type": "uint256"
        }
      ],
      "name": "AmountsUpdated",
      "type": "event"
    },
    {
      "anonymous": false,
      "inputs": [
        {
          "indexed": true,
          "internalType": "address",
          "name": "_owner",
          "type": "address"
        },
        {
          "indexed": true,
          "internalType": "address",
          "name": "_spender",
          "type": "address"
        },
        {
          "indexed": false,
          "internalType": "uint256",
          "name": "_value",
          "type": "uint256"
        }
      ],
      "name": "Approval",
      "type": "event"
    },
    {
      "anonymous": false,
      "inputs": [
        {
          "indexed": true,
          "internalType": "address",
          "name": "previousOwner",
          "type": "address"
        },
        {
          "indexed": true,
          "internalType": "address",
          "name": "newOwner",
          "type": "address"
        }
      ],
      "name": "OwnershipTransferred",
      "type": "event"
    },
    {
      "anonymous": false,
      "inputs": [
        {
          "indexed": true,
          "internalType": "address",
          "name": "_from",
          "type": "address"
        },
        {
          "indexed": true,
          "internalType": "address",
          "name": "_to",
          "type": "address"
        },
        {
          "indexed": false,
          "internalType": "uint256",
          "name": "_value",
          "type": "uint256"
        }
      ],
      "name": "Transfer",
      "type": "event"
    },
    {
      "inputs": [
        {
          "internalType": "address",
          "name": "_owner",
          "type": "address"
        },
        {
          "internalType": "address",
          "name": "_spender",
          "type": "address"
        }
      ],
      "name": "allowance",
      "outputs": [
        {
          "internalType": "uint256",
          "name": "remaining",
          "type": "uint256"
        }
      ],
      "stateMutability": "view",
      "type": "function"
    },
    {
      "inputs": [
        {
          "internalType": "address",
          "name": "_spender",
          "type": "address"
        },
        {
          "internalType": "uint256",
          "name": "_value",
          "type": "uint256"
        }
      ],
      "name": "approve",
      "outputs": [
        {
          "internalType": "bool",
          "name": "success",
          "type": "bool"
        }
      ],
      "stateMutability": "nonpayable",
      "type": "function"
    },
    {
      "inputs": [
        {
          "internalType": "address",
          "name": "account",
          "type": "address"
        }
      ],
      "name": "balanceOf",
      "outputs": [
        {
          "internalType": "uint256",
          "name": "",
          "type": "uint256"
        }
      ],
      "stateMutability": "view",
      "type": "function"
    },
    {
      "inputs": [],
      "name": "decimals",
      "outputs": [
        {
          "internalType": "uint8",
          "name": "",
          "type": "uint8"
        }
      ],
      "stateMutability": "view",
      "type": "function"
    },
    {
      "inputs": [],
      "name": "name",
      "outputs": [
        {
          "internalType": "string",
          "name": "",
          "type": "string"
        }
      ],
      "stateMutability": "view",
      "type": "function"
    },
    {
      "inputs": [],
      "name": "owner",
      "outputs": [
        {
          "internalType": "address",
          "name": "",
          "type": "address"
        }
      ],
      "stateMutability": "view",
      "type": "function"
    },
    {
      "inputs": [],
      "name": "renounceOwnership",
      "outputs": [],
      "stateMutability": "nonpayable",
      "type": "function"
    },
    {
      "inputs": [
        {
          "internalType": "address[]",
          "name": "_validators",
          "type": "address[]"
        },
        {
          "internalType": "uint256[]",
          "name": "_amounts",
          "type": "uint256[]"
        }
      ],
      "name": "setAmountStakedByAddress",
      "outputs": [
        {
          "internalType": "bool",
          "name": "",
          "type": "bool"
        }
      ],
      "stateMutability": "nonpayable",
      "type": "function"
    },
    {
      "inputs": [],
      "name": "symbol",
      "outputs": [
        {
          "internalType": "string",
          "name": "",
          "type": "string"
        }
      ],
      "stateMutability": "view",
      "type": "function"
    },
    {
      "inputs": [],
      "name": "totalSupply",
      "outputs": [
        {
          "internalType": "uint256",
          "name": "",
          "type": "uint256"
        }
      ],
      "stateMutability": "view",
      "type": "function"
    },
    {
      "inputs": [
        {
          "internalType": "address",
          "name": "_to",
          "type": "address"
        },
        {
          "internalType": "uint256",
          "name": "_value",
          "type": "uint256"
        }
      ],
      "name": "transfer",
      "outputs": [
        {
          "internalType": "bool",
          "name": "success",
          "type": "bool"
        }
      ],
      "stateMutability": "nonpayable",
      "type": "function"
    },
    {
      "inputs": [
        {
          "internalType": "address",
          "name": "_from",
          "type": "address"
        },
        {
          "internalType": "address",
          "name": "_to",
          "type": "address"
        },
        {
          "internalType": "uint256",
          "name": "_value",
          "type": "uint256"
        }
      ],
      "name": "transferFrom",
      "outputs": [
        {
          "internalType": "bool",
          "name": "success",
          "type": "bool"
        }
      ],
      "stateMutability": "nonpayable",
      "type": "function"
    },
    {
      "inputs": [
        {
          "internalType": "address",
          "name": "newOwner",
          "type": "address"
        }
      ],
      "name": "transferOwnership",
      "outputs": [],
      "stateMutability": "nonpayable",
      "type": "function"
    }
  ],
  "bytecode": "0x608060405234801561001057600080fd5b5061001a33610091565b60408051808201909152601e8082527f56616c696461746f722044616f20476f7665726e616e636520546f6b656e0000602090920191825261005e916003916100e1565b50604080518082019091526005808252645644414f4760d81b602090920191825261008b916004916100e1565b506101b5565b600080546001600160a01b038381166001600160a01b0319831681178455604051919092169283917f8be0079c531659141344cd1fd0a4f28419497f9722a3daafe3b4186f6b6457e09190a35050565b8280546100ed9061017a565b90600052602060002090601f01602090048101928261010f5760008555610155565b82601f1061012857805160ff1916838001178555610155565b82800160010185558215610155579182015b8281111561015557825182559160200191906001019061013a565b50610161929150610165565b5090565b5b808211156101615760008155600101610166565b600181811c9082168061018e57607f821691505b602082108114156101af57634e487b7160e01b600052602260045260246000fd5b50919050565b610a64806101c46000396000f3fe608060405234801561001057600080fd5b50600436106100df5760003560e01c8063715018a61161008c578063a9059cbb11610066578063a9059cbb146101af578063b2976dac146101bd578063dd62ed3e146101d0578063f2fde38b146101e357600080fd5b8063715018a6146101825780638da5cb5b1461018c57806395d89b41146101a757600080fd5b806323b872dd116100bd57806323b872dd14610137578063313ce5671461014a57806370a082311461015957600080fd5b806306fdde03146100e4578063095ea7b31461010257806318160ddd14610125575b600080fd5b6100ec6101f6565b6040516100f991906106d2565b60405180910390f35b610115610110366004610743565b610288565b60405190151581526020016100f9565b6002545b6040519081526020016100f9565b61011561014536600461076d565b6102d8565b604051601281526020016100f9565b6101296101673660046107a9565b6001600160a01b031660009081526001602052604090205490565b61018a610323565b005b6000546040516001600160a01b0390911681526020016100f9565b6100ec610389565b610115610145366004610743565b6101156101cb3660046108a1565b610398565b6101296101de366004610961565b61053e565b61018a6101f13660046107a9565b610588565b60606003805461020590610994565b80601f016020809104026020016040519081016040528092919081815260200182805461023190610994565b801561027e5780601f106102535761010080835404028352916020019161027e565b820191906000526020600020905b81548152906001019060200180831161026157829003601f168201915b5050505050905090565b60405162461bcd60e51b815260206004820152601e60248201527f417070726f76652046756e6374696f6e206e6f7420617661696c61626c65000060448201526000906064015b60405180910390fd5b60405162461bcd60e51b815260206004820152601f60248201527f5472616e736665722046756e6374696f6e206e6f7420617661696c61626c650060448201526000906064016102cf565b6000546001600160a01b0316331461037d5760405162461bcd60e51b815260206004820181905260248201527f4f776e61626c653a2063616c6c6572206973206e6f7420746865206f776e657260448201526064016102cf565b610387600061066a565b565b60606004805461020590610994565b600080546001600160a01b031633146103f35760405162461bcd60e51b815260206004820181905260248201527f4f776e61626c653a2063616c6c6572206973206e6f7420746865206f776e657260448201526064016102cf565b81518351146104445760405162461bcd60e51b815260206004820152601460248201527f4c656e6774687320646f206e6f74206d6174636800000000000000000000000060448201526064016102cf565b60006002819055805b84518110156104eb57838181518110610468576104686109cf565b602002602001015160016000878481518110610486576104866109cf565b60200260200101516001600160a01b03166001600160a01b03168152602001908152602001600020819055508381815181106104c4576104c46109cf565b6020026020010151826104d791906109fb565b9150806104e381610a13565b91505061044d565b506002819055835160408051600181526020810184905280820192909252517f481687d54cd5a4e9d892125e8b4db9d505da11e51b691245ebb46c2072dcd9159181900360600190a15060019392505050565b600060405162461bcd60e51b81526004016102cf906020808252818101527f616c6c6f77616e63652046756e6374696f6e206e6f7420617661696c61626c65604082015260600190565b6000546001600160a01b031633146105e25760405162461bcd60e51b815260206004820181905260248201527f4f776e61626c653a2063616c6c6572206973206e6f7420746865206f776e657260448201526064016102cf565b6001600160a01b03811661065e5760405162461bcd60e51b815260206004820152602660248201527f4f776e61626c653a206e6577206f776e657220697320746865207a65726f206160448201527f646472657373000000000000000000000000000000000000000000000000000060648201526084016102cf565b6106678161066a565b50565b600080546001600160a01b038381167fffffffffffffffffffffffff0000000000000000000000000000000000000000831681178455604051919092169283917f8be0079c531659141344cd1fd0a4f28419497f9722a3daafe3b4186f6b6457e09190a35050565b600060208083528351808285015260005b818110156106ff578581018301518582016040015282016106e3565b81811115610711576000604083870101525b50601f01601f1916929092016040019392505050565b80356001600160a01b038116811461073e57600080fd5b919050565b6000806040838503121561075657600080fd5b61075f83610727565b946020939093013593505050565b60008060006060848603121561078257600080fd5b61078b84610727565b925061079960208501610727565b9150604084013590509250925092565b6000602082840312156107bb57600080fd5b6107c482610727565b9392505050565b634e487b7160e01b600052604160045260246000fd5b604051601f8201601f1916810167ffffffffffffffff8111828210171561080a5761080a6107cb565b604052919050565b600067ffffffffffffffff82111561082c5761082c6107cb565b5060051b60200190565b600082601f83011261084757600080fd5b8135602061085c61085783610812565b6107e1565b82815260059290921b8401810191818101908684111561087b57600080fd5b8286015b84811015610896578035835291830191830161087f565b509695505050505050565b600080604083850312156108b457600080fd5b823567ffffffffffffffff808211156108cc57600080fd5b818501915085601f8301126108e057600080fd5b813560206108f061085783610812565b82815260059290921b8401810191818101908984111561090f57600080fd5b948201945b838610156109345761092586610727565b82529482019490820190610914565b9650508601359250508082111561094a57600080fd5b5061095785828601610836565b9150509250929050565b6000806040838503121561097457600080fd5b61097d83610727565b915061098b60208401610727565b90509250929050565b600181811c908216806109a857607f821691505b602082108114156109c957634e487b7160e01b600052602260045260246000fd5b50919050565b634e487b7160e01b600052603260045260246000fd5b634e487b7160e01b600052601160045260246000fd5b60008219821115610a0e57610a0e6109e5565b500190565b6000600019821415610a2757610a276109e5565b506001019056fea2646970667358221220e1ba65083411ee7f07941f9db55f19267418d26304148056e94ae005ccca008764736f6c634300080c0033",
  "linkReferences": {},
  "deployedLinkReferences": {}
}